{
  "contractName": "Voting",
  "abi": [
    {
      "inputs": [],
      "stateMutability": "nonpayable",
      "type": "constructor"
    },
    {
      "anonymous": false,
      "inputs": [
        {
          "indexed": true,
          "internalType": "address",
          "name": "voter",
          "type": "address"
        },
        {
          "indexed": true,
          "internalType": "uint256",
          "name": "candidateId",
          "type": "uint256"
        }
      ],
      "name": "VoteEvent",
      "type": "event"
    },
    {
      "inputs": [],
      "name": "candidateCount",
      "outputs": [
        {
          "internalType": "uint256",
          "name": "",
          "type": "uint256"
        }
      ],
      "stateMutability": "view",
      "type": "function",
      "constant": true
    },
    {
      "inputs": [
        {
          "internalType": "address",
          "name": "",
          "type": "address"
        }
      ],
      "name": "voterLookup",
      "outputs": [
        {
          "internalType": "bool",
          "name": "",
          "type": "bool"
        }
      ],
      "stateMutability": "view",
      "type": "function",
      "constant": true
    },
    {
      "inputs": [
        {
          "internalType": "uint256",
          "name": "id",
          "type": "uint256"
        }
      ],
      "name": "getCandidate",
      "outputs": [
        {
          "components": [
            {
              "internalType": "uint256",
              "name": "id",
              "type": "uint256"
            },
            {
              "internalType": "string",
              "name": "name",
              "type": "string"
            },
            {
              "internalType": "uint256",
              "name": "voteCount",
              "type": "uint256"
            }
          ],
          "internalType": "struct Voting.Candidate",
          "name": "candidate",
          "type": "tuple"
        }
      ],
      "stateMutability": "view",
      "type": "function",
      "constant": true
    },
    {
      "inputs": [],
      "name": "getAllCandidates",
      "outputs": [
        {
          "internalType": "string[]",
          "name": "names",
          "type": "string[]"
        },
        {
          "internalType": "uint256[]",
          "name": "voteCounts",
          "type": "uint256[]"
        }
      ],
      "stateMutability": "view",
      "type": "function",
      "constant": true
    },
    {
      "inputs": [
        {
          "internalType": "uint256",
          "name": "id",
          "type": "uint256"
        }
      ],
      "name": "vote",
      "outputs": [],
      "stateMutability": "payable",
      "type": "function",
      "payable": true
    }
  ],
  "bytecode": "0x60806040525f60025534801562000014575f80fd5b506200005b6040518060400160405280600881526020017f43617420f09f9088000000000000000000000000000000000000000000000000815250620001bf60201b60201c565b620000a16040518060400160405280600881526020017f446f6720f09f9095000000000000000000000000000000000000000000000000815250620001bf60201b60201c565b620000e76040518060400160405280600b81526020017f547572746c6520f09f90a2000000000000000000000000000000000000000000815250620001bf60201b60201c565b6200012d6040518060400160405280600981526020017f4669736820f09f909f0000000000000000000000000000000000000000000000815250620001bf60201b60201c565b620001736040518060400160405280600981526020017f4269726420f09f90a60000000000000000000000000000000000000000000000815250620001bf60201b60201c565b620001b96040518060400160405280600a81526020017f536e616b6520f09f908d00000000000000000000000000000000000000000000815250620001bf60201b60201c565b620005e8565b604051806060016040528060025481526020018281526020015f8152505f8060025481526020019081526020015f205f820151815f015560208201518160010190816200020d91906200049d565b5060408201518160020155905050600160025f8282546200022f9190620005ae565b9250508190555050565b5f81519050919050565b7f4e487b71000000000000000000000000000000000000000000000000000000005f52604160045260245ffd5b7f4e487b71000000000000000000000000000000000000000000000000000000005f52602260045260245ffd5b5f6002820490506001821680620002b557607f821691505b602082108103620002cb57620002ca62000270565b5b50919050565b5f819050815f5260205f209050919050565b5f6020601f8301049050919050565b5f82821b905092915050565b5f600883026200032f7fffffffffffffffffffffffffffffffffffffffffffffffffffffffffffffffff82620002f2565b6200033b8683620002f2565b95508019841693508086168417925050509392505050565b5f819050919050565b5f819050919050565b5f620003856200037f620003798462000353565b6200035c565b62000353565b9050919050565b5f819050919050565b620003a08362000365565b620003b8620003af826200038c565b848454620002fe565b825550505050565b5f90565b620003ce620003c0565b620003db81848462000395565b505050565b5b818110156200040257620003f65f82620003c4565b600181019050620003e1565b5050565b601f82111562000451576200041b81620002d1565b6200042684620002e3565b8101602085101562000436578190505b6200044e6200044585620002e3565b830182620003e0565b50505b505050565b5f82821c905092915050565b5f620004735f198460080262000456565b1980831691505092915050565b5f6200048d838362000462565b9150826002028217905092915050565b620004a88262000239565b67ffffffffffffffff811115620004c457620004c362000243565b5b620004d082546200029d565b620004dd82828562000406565b5f60209050601f83116001811462000513575f8415620004fe578287015190505b6200050a858262000480565b86555062000579565b601f1984166200052386620002d1565b5f5b828110156200054c5784890151825560018201915060208501945060208101905062000525565b868310156200056c578489015162000568601f89168262000462565b8355505b6001600288020188555050505b505050505050565b7f4e487b71000000000000000000000000000000000000000000000000000000005f52601160045260245ffd5b5f620005ba8262000353565b9150620005c78362000353565b9250828201905080821115620005e257620005e162000581565b5b92915050565b610d3980620005f65f395ff3fe608060405260043610610049575f3560e01c80630121b93f1461004d5780630f898ed8146100695780632e6997fe146100a557806335b8e820146100d0578063a9a981a31461010c575b5f80fd5b61006760048036038101906100629190610647565b610136565b005b348015610074575f80fd5b5061008f600480360381019061008a91906106cc565b610311565b60405161009c9190610711565b60405180910390f35b3480156100b0575f80fd5b506100b961032e565b6040516100c7929190610926565b60405180910390f35b3480156100db575f80fd5b506100f660048036038101906100f19190610647565b6104d9565b60405161010391906109a8565b60405180910390f35b348015610117575f80fd5b506101206105eb565b60405161012d91906109d7565b60405180910390f35b60015f3373ffffffffffffffffffffffffffffffffffffffff1673ffffffffffffffffffffffffffffffffffffffff1681526020019081526020015f205f9054906101000a900460ff16156101c0576040517f08c379a00000000000000000000000000000000000000000000000000000000081526004016101b790610a4a565b60405180910390fd5b600254811115610205576040517f08c379a00000000000000000000000000000000000000000000000000000000081526004016101fc90610ab2565b60405180910390fd5b64e8d4a51000341461024c576040517f08c379a000000000000000000000000000000000000000000000000000000000815260040161024390610b40565b60405180910390fd5b6001805f3373ffffffffffffffffffffffffffffffffffffffff1673ffffffffffffffffffffffffffffffffffffffff1681526020019081526020015f205f6101000a81548160ff02191690831515021790555060015f808381526020019081526020015f206002015f8282546102c39190610b8b565b92505081905550803373ffffffffffffffffffffffffffffffffffffffff167f6fd5d288b0fab89a7ee63c33c6d0430a5a3f813cf781179f3a8b3d46041a5d5a60405160405180910390a350565b6001602052805f5260405f205f915054906101000a900460ff1681565b60608060025467ffffffffffffffff81111561034d5761034c610bbe565b5b60405190808252806020026020018201604052801561038057816020015b606081526020019060019003908161036b5790505b50915060025467ffffffffffffffff81111561039f5761039e610bbe565b5b6040519080825280602002602001820160405280156103cd5781602001602082028036833780820191505090505b5090505f5b6002548110156104d4575f808281526020019081526020015f2060010180546103fa90610c18565b80601f016020809104026020016040519081016040528092919081815260200182805461042690610c18565b80156104715780601f1061044857610100808354040283529160200191610471565b820191905f5260205f20905b81548152906001019060200180831161045457829003601f168201915b505050505083828151811061048957610488610c48565b5b60200260200101819052505f808281526020019081526020015f20600201548282815181106104bb576104ba610c48565b5b60200260200101818152505080806001019150506103d2565b509091565b6104e16105f1565b600254821115610526576040517f08c379a000000000000000000000000000000000000000000000000000000000815260040161051d90610ce5565b60405180910390fd5b5f808381526020019081526020015f206040518060600160405290815f820154815260200160018201805461055a90610c18565b80601f016020809104026020016040519081016040528092919081815260200182805461058690610c18565b80156105d15780601f106105a8576101008083540402835291602001916105d1565b820191905f5260205f20905b8154815290600101906020018083116105b457829003601f168201915b505050505081526020016002820154815250509050919050565b60025481565b60405180606001604052805f8152602001606081526020015f81525090565b5f80fd5b5f819050919050565b61062681610614565b8114610630575f80fd5b50565b5f813590506106418161061d565b92915050565b5f6020828403121561065c5761065b610610565b5b5f61066984828501610633565b91505092915050565b5f73ffffffffffffffffffffffffffffffffffffffff82169050919050565b5f61069b82610672565b9050919050565b6106ab81610691565b81146106b5575f80fd5b50565b5f813590506106c6816106a2565b92915050565b5f602082840312156106e1576106e0610610565b5b5f6106ee848285016106b8565b91505092915050565b5f8115159050919050565b61070b816106f7565b82525050565b5f6020820190506107245f830184610702565b92915050565b5f81519050919050565b5f82825260208201905092915050565b5f819050602082019050919050565b5f81519050919050565b5f82825260208201905092915050565b5f5b8381101561078a57808201518184015260208101905061076f565b5f8484015250505050565b5f601f19601f8301169050919050565b5f6107af82610753565b6107b9818561075d565b93506107c981856020860161076d565b6107d281610795565b840191505092915050565b5f6107e883836107a5565b905092915050565b5f602082019050919050565b5f6108068261072a565b6108108185610734565b93508360208202850161082285610744565b805f5b8581101561085d578484038952815161083e85826107dd565b9450610849836107f0565b925060208a01995050600181019050610825565b50829750879550505050505092915050565b5f81519050919050565b5f82825260208201905092915050565b5f819050602082019050919050565b6108a181610614565b82525050565b5f6108b28383610898565b60208301905092915050565b5f602082019050919050565b5f6108d48261086f565b6108de8185610879565b93506108e983610889565b805f5b8381101561091957815161090088826108a7565b975061090b836108be565b9250506001810190506108ec565b5085935050505092915050565b5f6040820190508181035f83015261093e81856107fc565b9050818103602083015261095281846108ca565b90509392505050565b5f606083015f8301516109705f860182610898565b506020830151848203602086015261098882826107a5565b915050604083015161099d6040860182610898565b508091505092915050565b5f6020820190508181035f8301526109c0818461095b565b905092915050565b6109d181610614565b82525050565b5f6020820190506109ea5f8301846109c8565b92915050565b5f82825260208201905092915050565b7f5b766f74655d3a20596f75206861766520616c726561647920766f74656421005f82015250565b5f610a34601f836109f0565b9150610a3f82610a00565b602082019050919050565b5f6020820190508181035f830152610a6181610a28565b9050919050565b7f5b766f74655d3a204944206e6f7420666f756e642100000000000000000000005f82015250565b5f610a9c6015836109f0565b9150610aa782610a68565b602082019050919050565b5f6020820190508181035f830152610ac981610a90565b9050919050565b7f5b766f74655d3a20596f75206e65656420746f2073656e6420313030302067775f8201527f65692028302e3030303030312065746865722920746f20766f74652100000000602082015250565b5f610b2a603c836109f0565b9150610b3582610ad0565b604082019050919050565b5f6020820190508181035f830152610b5781610b1e565b9050919050565b7f4e487b71000000000000000000000000000000000000000000000000000000005f52601160045260245ffd5b5f610b9582610614565b9150610ba083610614565b9250828201905080821115610bb857610bb7610b5e565b5b92915050565b7f4e487b71000000000000000000000000000000000000000000000000000000005f52604160045260245ffd5b7f4e487b71000000000000000000000000000000000000000000000000000000005f52602260045260245ffd5b5f6002820490506001821680610c2f57607f821691505b602082108103610c4257610c41610beb565b5b50919050565b7f4e487b71000000000000000000000000000000000000000000000000000000005f52603260045260245ffd5b7f5b67657443616e6469646174655d3a20494420697320677265617465722074685f8201527f616e2063616e64696461746520636f756e742100000000000000000000000000602082015250565b5f610ccf6033836109f0565b9150610cda82610c75565b604082019050919050565b5f6020820190508181035f830152610cfc81610cc3565b905091905056fea26469706673582212207f610f7657de629dbaa4070fb725f3e7b3563c331f45f12dfb8a03d48de6b9b964736f6c63430008170033",
  "immutableReferences": {},
  "source": "// SPDX-License-Identifier: MIT\r\npragma solidity >=0.7.0 <0.9.0;\r\n\r\ncontract Voting {\r\n    struct Candidate {\r\n        uint256 id;\r\n        string name;\r\n        uint256 voteCount;\r\n    }\r\n\r\n    mapping(uint256 => Candidate) private candidateLookup;\r\n    mapping(address => bool) public voterLookup;\r\n\r\n    uint256 public candidateCount = 0;\r\n\r\n    event VoteEvent(address indexed voter, uint256 indexed candidateId);\r\n\r\n    constructor() {\r\n        addCandidate(unicode\"Cat \");\r\n        addCandidate(unicode\"Dog \");\r\n        addCandidate(unicode\"Turtle \");\r\n        addCandidate(unicode\"Fish \");\r\n        addCandidate(unicode\"Bird \");\r\n        addCandidate(unicode\"Snake \");\r\n    }\r\n\r\n    function addCandidate(string memory name) private {\r\n        candidateLookup[candidateCount] = Candidate(candidateCount, name, 0);\r\n        candidateCount += 1;\r\n    }\r\n\r\n    function getCandidate(uint256 id)\r\n        external\r\n        view\r\n        returns (Candidate memory candidate)\r\n    {\r\n        require(\r\n            id <= candidateCount,\r\n            \"[getCandidate]: ID is greater than candidate count!\"\r\n        );\r\n        candidate = candidateLookup[id];\r\n    }\r\n\r\n    function getAllCandidates()\r\n        external\r\n        view\r\n        returns (string[] memory names, uint256[] memory voteCounts)\r\n    {\r\n        names = new string[](candidateCount);\r\n        voteCounts = new uint256[](candidateCount);\r\n\r\n        for (uint256 i = 0; i < candidateCount; i++) {\r\n            names[i] = candidateLookup[i].name;\r\n            voteCounts[i] = candidateLookup[i].voteCount;\r\n        }\r\n    }\r\n\r\n    function vote(uint256 id) external payable {\r\n        require(!voterLookup[msg.sender], \"[vote]: You have already voted!\");\r\n        require(id <= candidateCount, \"[vote]: ID not found!\");\r\n        require(\r\n            msg.value == 1000 gwei,\r\n            \"[vote]: You need to send 1000 gwei (0.000001 ether) to vote!\"\r\n        );\r\n\r\n        voterLookup[msg.sender] = true;\r\n        candidateLookup[id].voteCount += 1;\r\n\r\n        emit VoteEvent(msg.sender, id);\r\n    }\r\n}\r\n",
  "sourcePath": "W:\\Blockchain\\simplified-blockchain\\Lab 03\\contracts\\Voting.sol",
  "compiler": {
    "name": "solc",
    "version": "0.8.23+commit.f704f362.Emscripten.clang"
  },
  "schemaVersion": "3.4.14",
  "updatedAt": "2023-12-26T14:25:27.506Z",
  "networkType": "ethereum",
  "devdoc": {
    "kind": "dev",
    "methods": {},
    "version": 1
  },
  "userdoc": {
    "kind": "user",
    "methods": {},
    "version": 1
  }
}